{
  "address": "0x8A791620dd6260079BF849Dc5567aDC3F2FdC318",
  "abi": [
    {
      "inputs": [],
      "stateMutability": "nonpayable",
      "type": "constructor"
    },
    {
      "inputs": [],
      "name": "listItem",
      "outputs": [],
      "stateMutability": "nonpayable",
      "type": "function"
    }
  ],
  "transactionHash": "0x351a85a33256d3c0bb212864ca1c36ac866726c2b88011168ae335d7a92f7828",
  "args": [],
  "numDeployments": 1,
  "solcInputHash": "817da0031ba5e5f05649a9b33dc29f6e",
  "bytecode": "0x6080604052348015600f57600080fd5b50606d80601d6000396000f3fe6080604052348015600f57600080fd5b506004361060285760003560e01c80635b679c8f14602d575b600080fd5b60336035565b005b56fea264697066735822122040eb99dd0af9047b80662de21229a7f42c638a48abc11499d09506cb56807a2e64736f6c63430008080033",
  "devdoc": {
    "kind": "dev",
    "methods": {},
    "version": 1
  },
  "userdoc": {
    "kind": "user",
    "methods": {},
    "version": 1
  },
  "storageLayout": {
    "storage": [],
    "types": null
  }
}